{
  "address": "0x9133A8722FB02B038292A6C90508B0f7000c6e05",
  "abi": [
    {
      "inputs": [],
      "name": "InvalidInitialization",
      "type": "error"
    },
    {
      "inputs": [],
      "name": "NotInitializing",
      "type": "error"
    },
    {
      "anonymous": false,
      "inputs": [
        {
          "indexed": false,
          "internalType": "uint64",
          "name": "version",
          "type": "uint64"
        }
      ],
      "name": "Initialized",
      "type": "event"
    },
    {
      "anonymous": false,
      "inputs": [
        {
          "indexed": false,
          "internalType": "bytes32[]",
          "name": "ids",
          "type": "bytes32[]"
        },
        {
          "components": [
            {
              "internalType": "int64",
              "name": "price",
              "type": "int64"
            },
            {
              "internalType": "uint64",
              "name": "conf",
              "type": "uint64"
            },
            {
              "internalType": "int32",
              "name": "expo",
              "type": "int32"
            },
            {
              "internalType": "uint256",
              "name": "publishTime",
              "type": "uint256"
            }
          ],
          "indexed": false,
          "internalType": "struct PythStructs.Price[]",
          "name": "prices",
          "type": "tuple[]"
        }
      ],
      "name": "PricesUpdated",
      "type": "event"
    },
    {
      "inputs": [],
      "name": "dedicatedMsgSender",
      "outputs": [
        {
          "internalType": "address",
          "name": "",
          "type": "address"
        }
      ],
      "stateMutability": "view",
      "type": "function"
    },
    {
      "inputs": [],
      "name": "deposit",
      "outputs": [],
      "stateMutability": "payable",
      "type": "function"
    },
    {
      "inputs": [
        {
          "internalType": "address",
          "name": "_pyth",
          "type": "address"
        },
        {
          "internalType": "address",
          "name": "_dedicatedMsgSender",
          "type": "address"
        }
      ],
      "name": "initialize",
      "outputs": [],
      "stateMutability": "nonpayable",
      "type": "function"
    },
    {
      "inputs": [],
      "name": "pyth",
      "outputs": [
        {
          "internalType": "contract IPyth",
          "name": "",
          "type": "address"
        }
      ],
      "stateMutability": "view",
      "type": "function"
    },
    {
      "inputs": [
        {
          "internalType": "bytes32[]",
          "name": "_ids",
          "type": "bytes32[]"
        },
        {
          "internalType": "bytes[]",
          "name": "_updateData",
          "type": "bytes[]"
        }
      ],
      "name": "updatePrices",
      "outputs": [],
      "stateMutability": "nonpayable",
      "type": "function"
    }
  ],
  "transactionHash": "0x2c7c160e92a1ca12d5b664ffc29f445113b739f9b0fa140ea36aa1ce082954d3",
  "args": [],
  "numDeployments": 1,
  "solcInputHash": "f39c77431118c7be6f50ac177cf25bfa",
  "bytecode": "0x6080604052348015600f57600080fd5b50610ac58061001f6000396000f3fe60806040526004361061005a5760003560e01c8063485cc95511610043578063485cc955146100d7578063d0e30db01461007f578063f98d06f0146100f757600080fd5b80630aa9adbc1461005f57806328f150eb14610081575b600080fd5b34801561006b57600080fd5b5061007f61007a366004610683565b610124565b005b34801561008d57600080fd5b506001546100ae9073ffffffffffffffffffffffffffffffffffffffff1681565b60405173ffffffffffffffffffffffffffffffffffffffff909116815260200160405180910390f35b3480156100e357600080fd5b5061007f6100f236600461071d565b61046a565b34801561010357600080fd5b506000546100ae9073ffffffffffffffffffffffffffffffffffffffff1681565b60015473ffffffffffffffffffffffffffffffffffffffff1633146101a9576040517f08c379a000000000000000000000000000000000000000000000000000000000815260206004820152601960248201527f4f6e6c7920646564696361746564206d73672e73656e64657200000000000000604482015260640160405180910390fd5b600080546040517fd47eed4500000000000000000000000000000000000000000000000000000000815273ffffffffffffffffffffffffffffffffffffffff9091169063d47eed45906102029086908690600401610799565b602060405180830381865afa15801561021f573d6000803e3d6000fd5b505050506040513d601f19601f820116820180604052508101906102439190610878565b6000546040517fef9e5e2800000000000000000000000000000000000000000000000000000000815291925073ffffffffffffffffffffffffffffffffffffffff169063ef9e5e2890839061029e9087908790600401610799565b6000604051808303818588803b1580156102b757600080fd5b505af11580156102cb573d6000803e3d6000fd5b5060009350879250505067ffffffffffffffff8111156102ed576102ed610891565b60405190808252806020026020018201604052801561035d57816020015b6040805160808101825260008082526020808301829052928201819052606082015282527fffffffffffffffffffffffffffffffffffffffffffffffffffffffffffffffff90920191018161030b5790505b50905060005b858110156104265760005473ffffffffffffffffffffffffffffffffffffffff166331d98b3f88888481811061039b5761039b6108c0565b905060200201356040518263ffffffff1660e01b81526004016103c091815260200190565b608060405180830381865afa1580156103dd573d6000803e3d6000fd5b505050506040513d601f19601f820116820180604052508101906104019190610919565b828281518110610413576104136108c0565b6020908102919091010152600101610363565b507fcf1044103f148b58a40745f90b72a8e9d119c3207bb5aba5918798a7ecc2bac186868360405161045a939291906109c5565b60405180910390a1505050505050565b7ff0c57e16840df040f15088dc2f81fe391c3923bec73e23a9662efc9c229c6a00805468010000000000000000810460ff16159067ffffffffffffffff166000811580156104b55750825b905060008267ffffffffffffffff1660011480156104d25750303b155b9050811580156104e0575080155b15610517576040517ff92ee8a900000000000000000000000000000000000000000000000000000000815260040160405180910390fd5b84547fffffffffffffffffffffffffffffffffffffffffffffffff000000000000000016600117855583156105785784547fffffffffffffffffffffffffffffffffffffffffffffff00ffffffffffffffff16680100000000000000001785555b6000805473ffffffffffffffffffffffffffffffffffffffff808a167fffffffffffffffffffffffff0000000000000000000000000000000000000000928316179092556001805492891692909116919091179055831561062e5784547fffffffffffffffffffffffffffffffffffffffffffffff00ffffffffffffffff168555604051600181527fc7f505b2f371ae2175ee4913f4499e1f2633a7b5936321eed1cdaeb6115181d29060200160405180910390a15b50505050505050565b60008083601f84011261064957600080fd5b50813567ffffffffffffffff81111561066157600080fd5b6020830191508360208260051b850101111561067c57600080fd5b9250929050565b6000806000806040858703121561069957600080fd5b843567ffffffffffffffff8111156106b057600080fd5b6106bc87828801610637565b909550935050602085013567ffffffffffffffff8111156106dc57600080fd5b6106e887828801610637565b95989497509550505050565b803573ffffffffffffffffffffffffffffffffffffffff8116811461071857600080fd5b919050565b6000806040838503121561073057600080fd5b610739836106f4565b9150610747602084016106f4565b90509250929050565b8183528181602085013750600060208284010152600060207fffffffffffffffffffffffffffffffffffffffffffffffffffffffffffffffe0601f840116840101905092915050565b6020808252810182905260006040600584901b8301810190830185837fffffffffffffffffffffffffffffffffffffffffffffffffffffffffffffffe136839003015b8782101561086b577fffffffffffffffffffffffffffffffffffffffffffffffffffffffffffffffc0878603018452823581811261081957600080fd5b890160208101903567ffffffffffffffff81111561083657600080fd5b80360382131561084557600080fd5b610850878284610750565b965050506020830192506020840193506001820191506107dc565b5092979650505050505050565b60006020828403121561088a57600080fd5b5051919050565b7f4e487b7100000000000000000000000000000000000000000000000000000000600052604160045260246000fd5b7f4e487b7100000000000000000000000000000000000000000000000000000000600052603260045260246000fd5b805167ffffffffffffffff8116811461071857600080fd5b8051600381900b811461071857600080fd5b6000608082840312801561092c57600080fd5b600090506040516080810181811067ffffffffffffffff82111715610978577f4e487b710000000000000000000000000000000000000000000000000000000083526041600452602483fd5b6040528351600781900b811461098c578283fd5b815261099a602085016108ef565b60208201526109ab60408501610907565b604082015260609384015193810193909352509092915050565b6040815282604082015260007f07ffffffffffffffffffffffffffffffffffffffffffffffffffffffffffffff8411156109fe57600080fd5b8360051b80866060850137606090830183810382016020808601919091528551928201839052850191600091608001905b80831015610a83578351805160070b835267ffffffffffffffff6020820151166020840152604081015160030b60408401526060810151606084015250608082019150602084019350600183019250610a2f565b5097965050505050505056fea26469706673582212200b7e9dcf7bb8b256704ebbf84832c4946f59177f9f4a4233aa4847adae2c482764736f6c634300081a0033",
  "devdoc": {
    "errors": {
      "InvalidInitialization()": [
        {
          "details": "The contract is already initialized."
        }
      ],
      "NotInitializing()": [
        {
          "details": "The contract is not initializing."
        }
      ]
    },
    "events": {
      "Initialized(uint64)": {
        "details": "Triggered when the contract has been initialized or reinitialized."
      }
    },
    "kind": "dev",
    "methods": {},
    "version": 1
  },
  "userdoc": {
    "kind": "user",
    "methods": {},
    "version": 1
  },
  "storageLayout": {
    "storage": [
      {
        "astId": 439,
        "contract": "contracts/L1PriceOracle.sol:L1PriceOracle",
        "label": "pyth",
        "offset": 0,
        "slot": "0",
        "type": "t_contract(IPyth)390"
      },
      {
        "astId": 441,
        "contract": "contracts/L1PriceOracle.sol:L1PriceOracle",
        "label": "dedicatedMsgSender",
        "offset": 0,
        "slot": "1",
        "type": "t_address"
      }
    ],
    "types": {
      "t_address": {
        "encoding": "inplace",
        "label": "address",
        "numberOfBytes": "20"
      },
      "t_contract(IPyth)390": {
        "encoding": "inplace",
        "label": "contract IPyth",
        "numberOfBytes": "20"
      }
    }
  }
}